{
	"data": {
		"bytecode": {
			"linkReferences": {},
			"object": "6080604052348015600e575f80fd5b506106128061001c5f395ff3fe608060405234801561000f575f80fd5b5060043610610029575f3560e01c80636a385ae91461002d575b5f80fd5b610047600480360381019061004291906103bc565b61005d565b6040516100549190610512565b60405180910390f35b60605f825167ffffffffffffffff81111561007b5761007a610280565b5b6040519080825280602002602001820160405280156100b457816020015b6100a16101d3565b8152602001906001900390816100995790505b5090505f5b83518110156101c8575f8482815181106100d6576100d5610532565b5b6020026020010151905060405180604001604052808684815181106100fe576100fd610532565b5b602002602001015173ffffffffffffffffffffffffffffffffffffffff1681526020018273ffffffffffffffffffffffffffffffffffffffff166370a08231896040518263ffffffff1660e01b815260040161015a919061056e565b602060405180830381865afa158015610175573d5f803e3d5ffd5b505050506040513d601f19601f8201168201806040525081019061019991906105b1565b8152508383815181106101af576101ae610532565b5b60200260200101819052505080806001019150506100b9565b508091505092915050565b60405180604001604052805f73ffffffffffffffffffffffffffffffffffffffff1681526020015f81525090565b5f604051905090565b5f80fd5b5f80fd5b5f73ffffffffffffffffffffffffffffffffffffffff82169050919050565b5f61023b82610212565b9050919050565b61024b81610231565b8114610255575f80fd5b50565b5f8135905061026681610242565b92915050565b5f80fd5b5f601f19601f8301169050919050565b7f4e487b71000000000000000000000000000000000000000000000000000000005f52604160045260245ffd5b6102b682610270565b810181811067ffffffffffffffff821117156102d5576102d4610280565b5b80604052505050565b5f6102e7610201565b90506102f382826102ad565b919050565b5f67ffffffffffffffff82111561031257610311610280565b5b602082029050602081019050919050565b5f80fd5b5f610339610334846102f8565b6102de565b9050808382526020820190506020840283018581111561035c5761035b610323565b5b835b8181101561038557806103718882610258565b84526020840193505060208101905061035e565b5050509392505050565b5f82601f8301126103a3576103a261026c565b5b81356103b3848260208601610327565b91505092915050565b5f80604083850312156103d2576103d161020a565b5b5f6103df85828601610258565b925050602083013567ffffffffffffffff811115610400576103ff61020e565b5b61040c8582860161038f565b9150509250929050565b5f81519050919050565b5f82825260208201905092915050565b5f819050602082019050919050565b61044881610231565b82525050565b5f819050919050565b6104608161044e565b82525050565b604082015f82015161047a5f85018261043f565b50602082015161048d6020850182610457565b50505050565b5f61049e8383610466565b60408301905092915050565b5f602082019050919050565b5f6104c082610416565b6104ca8185610420565b93506104d583610430565b805f5b838110156105055781516104ec8882610493565b97506104f7836104aa565b9250506001810190506104d8565b5085935050505092915050565b5f6020820190508181035f83015261052a81846104b6565b905092915050565b7f4e487b71000000000000000000000000000000000000000000000000000000005f52603260045260245ffd5b61056881610231565b82525050565b5f6020820190506105815f83018461055f565b92915050565b6105908161044e565b811461059a575f80fd5b50565b5f815190506105ab81610587565b92915050565b5f602082840312156105c6576105c561020a565b5b5f6105d38482850161059d565b9150509291505056fea264697066735822122037d94d73ba8468b9500fe4f6fac2794f35a2ca7fe521cfa1e82c90aeaf77029564736f6c634300081a0033",
			"opcodes": "PUSH1 0x80 PUSH1 0x40 MSTORE CALLVALUE DUP1 ISZERO PUSH1 0xE JUMPI PUSH0 DUP1 REVERT JUMPDEST POP PUSH2 0x612 DUP1 PUSH2 0x1C PUSH0 CODECOPY PUSH0 RETURN INVALID PUSH1 0x80 PUSH1 0x40 MSTORE CALLVALUE DUP1 ISZERO PUSH2 0xF JUMPI PUSH0 DUP1 REVERT JUMPDEST POP PUSH1 0x4 CALLDATASIZE LT PUSH2 0x29 JUMPI PUSH0 CALLDATALOAD PUSH1 0xE0 SHR DUP1 PUSH4 0x6A385AE9 EQ PUSH2 0x2D JUMPI JUMPDEST PUSH0 DUP1 REVERT JUMPDEST PUSH2 0x47 PUSH1 0x4 DUP1 CALLDATASIZE SUB DUP2 ADD SWAP1 PUSH2 0x42 SWAP2 SWAP1 PUSH2 0x3BC JUMP JUMPDEST PUSH2 0x5D JUMP JUMPDEST PUSH1 0x40 MLOAD PUSH2 0x54 SWAP2 SWAP1 PUSH2 0x512 JUMP JUMPDEST PUSH1 0x40 MLOAD DUP1 SWAP2 SUB SWAP1 RETURN JUMPDEST PUSH1 0x60 PUSH0 DUP3 MLOAD PUSH8 0xFFFFFFFFFFFFFFFF DUP2 GT ISZERO PUSH2 0x7B JUMPI PUSH2 0x7A PUSH2 0x280 JUMP JUMPDEST JUMPDEST PUSH1 0x40 MLOAD SWAP1 DUP1 DUP3 MSTORE DUP1 PUSH1 0x20 MUL PUSH1 0x20 ADD DUP3 ADD PUSH1 0x40 MSTORE DUP1 ISZERO PUSH2 0xB4 JUMPI DUP2 PUSH1 0x20 ADD JUMPDEST PUSH2 0xA1 PUSH2 0x1D3 JUMP JUMPDEST DUP2 MSTORE PUSH1 0x20 ADD SWAP1 PUSH1 0x1 SWAP1 SUB SWAP1 DUP2 PUSH2 0x99 JUMPI SWAP1 POP JUMPDEST POP SWAP1 POP PUSH0 JUMPDEST DUP4 MLOAD DUP2 LT ISZERO PUSH2 0x1C8 JUMPI PUSH0 DUP5 DUP3 DUP2 MLOAD DUP2 LT PUSH2 0xD6 JUMPI PUSH2 0xD5 PUSH2 0x532 JUMP JUMPDEST JUMPDEST PUSH1 0x20 MUL PUSH1 0x20 ADD ADD MLOAD SWAP1 POP PUSH1 0x40 MLOAD DUP1 PUSH1 0x40 ADD PUSH1 0x40 MSTORE DUP1 DUP7 DUP5 DUP2 MLOAD DUP2 LT PUSH2 0xFE JUMPI PUSH2 0xFD PUSH2 0x532 JUMP JUMPDEST JUMPDEST PUSH1 0x20 MUL PUSH1 0x20 ADD ADD MLOAD PUSH20 0xFFFFFFFFFFFFFFFFFFFFFFFFFFFFFFFFFFFFFFFF AND DUP2 MSTORE PUSH1 0x20 ADD DUP3 PUSH20 0xFFFFFFFFFFFFFFFFFFFFFFFFFFFFFFFFFFFFFFFF AND PUSH4 0x70A08231 DUP10 PUSH1 0x40 MLOAD DUP3 PUSH4 0xFFFFFFFF AND PUSH1 0xE0 SHL DUP2 MSTORE PUSH1 0x4 ADD PUSH2 0x15A SWAP2 SWAP1 PUSH2 0x56E JUMP JUMPDEST PUSH1 0x20 PUSH1 0x40 MLOAD DUP1 DUP4 SUB DUP2 DUP7 GAS STATICCALL ISZERO DUP1 ISZERO PUSH2 0x175 JUMPI RETURNDATASIZE PUSH0 DUP1 RETURNDATACOPY RETURNDATASIZE PUSH0 REVERT JUMPDEST POP POP POP POP PUSH1 0x40 MLOAD RETURNDATASIZE PUSH1 0x1F NOT PUSH1 0x1F DUP3 ADD AND DUP3 ADD DUP1 PUSH1 0x40 MSTORE POP DUP2 ADD SWAP1 PUSH2 0x199 SWAP2 SWAP1 PUSH2 0x5B1 JUMP JUMPDEST DUP2 MSTORE POP DUP4 DUP4 DUP2 MLOAD DUP2 LT PUSH2 0x1AF JUMPI PUSH2 0x1AE PUSH2 0x532 JUMP JUMPDEST JUMPDEST PUSH1 0x20 MUL PUSH1 0x20 ADD ADD DUP2 SWAP1 MSTORE POP POP DUP1 DUP1 PUSH1 0x1 ADD SWAP2 POP POP PUSH2 0xB9 JUMP JUMPDEST POP DUP1 SWAP2 POP POP SWAP3 SWAP2 POP POP JUMP JUMPDEST PUSH1 0x40 MLOAD DUP1 PUSH1 0x40 ADD PUSH1 0x40 MSTORE DUP1 PUSH0 PUSH20 0xFFFFFFFFFFFFFFFFFFFFFFFFFFFFFFFFFFFFFFFF AND DUP2 MSTORE PUSH1 0x20 ADD PUSH0 DUP2 MSTORE POP SWAP1 JUMP JUMPDEST PUSH0 PUSH1 0x40 MLOAD SWAP1 POP SWAP1 JUMP JUMPDEST PUSH0 DUP1 REVERT JUMPDEST PUSH0 DUP1 REVERT JUMPDEST PUSH0 PUSH20 0xFFFFFFFFFFFFFFFFFFFFFFFFFFFFFFFFFFFFFFFF DUP3 AND SWAP1 POP SWAP2 SWAP1 POP JUMP JUMPDEST PUSH0 PUSH2 0x23B DUP3 PUSH2 0x212 JUMP JUMPDEST SWAP1 POP SWAP2 SWAP1 POP JUMP JUMPDEST PUSH2 0x24B DUP2 PUSH2 0x231 JUMP JUMPDEST DUP2 EQ PUSH2 0x255 JUMPI PUSH0 DUP1 REVERT JUMPDEST POP JUMP JUMPDEST PUSH0 DUP2 CALLDATALOAD SWAP1 POP PUSH2 0x266 DUP2 PUSH2 0x242 JUMP JUMPDEST SWAP3 SWAP2 POP POP JUMP JUMPDEST PUSH0 DUP1 REVERT JUMPDEST PUSH0 PUSH1 0x1F NOT PUSH1 0x1F DUP4 ADD AND SWAP1 POP SWAP2 SWAP1 POP JUMP JUMPDEST PUSH32 0x4E487B7100000000000000000000000000000000000000000000000000000000 PUSH0 MSTORE PUSH1 0x41 PUSH1 0x4 MSTORE PUSH1 0x24 PUSH0 REVERT JUMPDEST PUSH2 0x2B6 DUP3 PUSH2 0x270 JUMP JUMPDEST DUP2 ADD DUP2 DUP2 LT PUSH8 0xFFFFFFFFFFFFFFFF DUP3 GT OR ISZERO PUSH2 0x2D5 JUMPI PUSH2 0x2D4 PUSH2 0x280 JUMP JUMPDEST JUMPDEST DUP1 PUSH1 0x40 MSTORE POP POP POP JUMP JUMPDEST PUSH0 PUSH2 0x2E7 PUSH2 0x201 JUMP JUMPDEST SWAP1 POP PUSH2 0x2F3 DUP3 DUP3 PUSH2 0x2AD JUMP JUMPDEST SWAP2 SWAP1 POP JUMP JUMPDEST PUSH0 PUSH8 0xFFFFFFFFFFFFFFFF DUP3 GT ISZERO PUSH2 0x312 JUMPI PUSH2 0x311 PUSH2 0x280 JUMP JUMPDEST JUMPDEST PUSH1 0x20 DUP3 MUL SWAP1 POP PUSH1 0x20 DUP2 ADD SWAP1 POP SWAP2 SWAP1 POP JUMP JUMPDEST PUSH0 DUP1 REVERT JUMPDEST PUSH0 PUSH2 0x339 PUSH2 0x334 DUP5 PUSH2 0x2F8 JUMP JUMPDEST PUSH2 0x2DE JUMP JUMPDEST SWAP1 POP DUP1 DUP4 DUP3 MSTORE PUSH1 0x20 DUP3 ADD SWAP1 POP PUSH1 0x20 DUP5 MUL DUP4 ADD DUP6 DUP2 GT ISZERO PUSH2 0x35C JUMPI PUSH2 0x35B PUSH2 0x323 JUMP JUMPDEST JUMPDEST DUP4 JUMPDEST DUP2 DUP2 LT ISZERO PUSH2 0x385 JUMPI DUP1 PUSH2 0x371 DUP9 DUP3 PUSH2 0x258 JUMP JUMPDEST DUP5 MSTORE PUSH1 0x20 DUP5 ADD SWAP4 POP POP PUSH1 0x20 DUP2 ADD SWAP1 POP PUSH2 0x35E JUMP JUMPDEST POP POP POP SWAP4 SWAP3 POP POP POP JUMP JUMPDEST PUSH0 DUP3 PUSH1 0x1F DUP4 ADD SLT PUSH2 0x3A3 JUMPI PUSH2 0x3A2 PUSH2 0x26C JUMP JUMPDEST JUMPDEST DUP2 CALLDATALOAD PUSH2 0x3B3 DUP5 DUP3 PUSH1 0x20 DUP7 ADD PUSH2 0x327 JUMP JUMPDEST SWAP2 POP POP SWAP3 SWAP2 POP POP JUMP JUMPDEST PUSH0 DUP1 PUSH1 0x40 DUP4 DUP6 SUB SLT ISZERO PUSH2 0x3D2 JUMPI PUSH2 0x3D1 PUSH2 0x20A JUMP JUMPDEST JUMPDEST PUSH0 PUSH2 0x3DF DUP6 DUP3 DUP7 ADD PUSH2 0x258 JUMP JUMPDEST SWAP3 POP POP PUSH1 0x20 DUP4 ADD CALLDATALOAD PUSH8 0xFFFFFFFFFFFFFFFF DUP2 GT ISZERO PUSH2 0x400 JUMPI PUSH2 0x3FF PUSH2 0x20E JUMP JUMPDEST JUMPDEST PUSH2 0x40C DUP6 DUP3 DUP7 ADD PUSH2 0x38F JUMP JUMPDEST SWAP2 POP POP SWAP3 POP SWAP3 SWAP1 POP JUMP JUMPDEST PUSH0 DUP2 MLOAD SWAP1 POP SWAP2 SWAP1 POP JUMP JUMPDEST PUSH0 DUP3 DUP3 MSTORE PUSH1 0x20 DUP3 ADD SWAP1 POP SWAP3 SWAP2 POP POP JUMP JUMPDEST PUSH0 DUP2 SWAP1 POP PUSH1 0x20 DUP3 ADD SWAP1 POP SWAP2 SWAP1 POP JUMP JUMPDEST PUSH2 0x448 DUP2 PUSH2 0x231 JUMP JUMPDEST DUP3 MSTORE POP POP JUMP JUMPDEST PUSH0 DUP2 SWAP1 POP SWAP2 SWAP1 POP JUMP JUMPDEST PUSH2 0x460 DUP2 PUSH2 0x44E JUMP JUMPDEST DUP3 MSTORE POP POP JUMP JUMPDEST PUSH1 0x40 DUP3 ADD PUSH0 DUP3 ADD MLOAD PUSH2 0x47A PUSH0 DUP6 ADD DUP3 PUSH2 0x43F JUMP JUMPDEST POP PUSH1 0x20 DUP3 ADD MLOAD PUSH2 0x48D PUSH1 0x20 DUP6 ADD DUP3 PUSH2 0x457 JUMP JUMPDEST POP POP POP POP JUMP JUMPDEST PUSH0 PUSH2 0x49E DUP4 DUP4 PUSH2 0x466 JUMP JUMPDEST PUSH1 0x40 DUP4 ADD SWAP1 POP SWAP3 SWAP2 POP POP JUMP JUMPDEST PUSH0 PUSH1 0x20 DUP3 ADD SWAP1 POP SWAP2 SWAP1 POP JUMP JUMPDEST PUSH0 PUSH2 0x4C0 DUP3 PUSH2 0x416 JUMP JUMPDEST PUSH2 0x4CA DUP2 DUP6 PUSH2 0x420 JUMP JUMPDEST SWAP4 POP PUSH2 0x4D5 DUP4 PUSH2 0x430 JUMP JUMPDEST DUP1 PUSH0 JUMPDEST DUP4 DUP2 LT ISZERO PUSH2 0x505 JUMPI DUP2 MLOAD PUSH2 0x4EC DUP9 DUP3 PUSH2 0x493 JUMP JUMPDEST SWAP8 POP PUSH2 0x4F7 DUP4 PUSH2 0x4AA JUMP JUMPDEST SWAP3 POP POP PUSH1 0x1 DUP2 ADD SWAP1 POP PUSH2 0x4D8 JUMP JUMPDEST POP DUP6 SWAP4 POP POP POP POP SWAP3 SWAP2 POP POP JUMP JUMPDEST PUSH0 PUSH1 0x20 DUP3 ADD SWAP1 POP DUP2 DUP2 SUB PUSH0 DUP4 ADD MSTORE PUSH2 0x52A DUP2 DUP5 PUSH2 0x4B6 JUMP JUMPDEST SWAP1 POP SWAP3 SWAP2 POP POP JUMP JUMPDEST PUSH32 0x4E487B7100000000000000000000000000000000000000000000000000000000 PUSH0 MSTORE PUSH1 0x32 PUSH1 0x4 MSTORE PUSH1 0x24 PUSH0 REVERT JUMPDEST PUSH2 0x568 DUP2 PUSH2 0x231 JUMP JUMPDEST DUP3 MSTORE POP POP JUMP JUMPDEST PUSH0 PUSH1 0x20 DUP3 ADD SWAP1 POP PUSH2 0x581 PUSH0 DUP4 ADD DUP5 PUSH2 0x55F JUMP JUMPDEST SWAP3 SWAP2 POP POP JUMP JUMPDEST PUSH2 0x590 DUP2 PUSH2 0x44E JUMP JUMPDEST DUP2 EQ PUSH2 0x59A JUMPI PUSH0 DUP1 REVERT JUMPDEST POP JUMP JUMPDEST PUSH0 DUP2 MLOAD SWAP1 POP PUSH2 0x5AB DUP2 PUSH2 0x587 JUMP JUMPDEST SWAP3 SWAP2 POP POP JUMP JUMPDEST PUSH0 PUSH1 0x20 DUP3 DUP5 SUB SLT ISZERO PUSH2 0x5C6 JUMPI PUSH2 0x5C5 PUSH2 0x20A JUMP JUMPDEST JUMPDEST PUSH0 PUSH2 0x5D3 DUP5 DUP3 DUP6 ADD PUSH2 0x59D JUMP JUMPDEST SWAP2 POP POP SWAP3 SWAP2 POP POP JUMP INVALID LOG2 PUSH5 0x6970667358 0x22 SLT KECCAK256 CALLDATACOPY 0xD9 0x4D PUSH20 0xBA8468B9500FE4F6FAC2794F35A2CA7FE521CFA1 0xE8 0x2C SWAP1 0xAE 0xAF PUSH24 0x29564736F6C634300081A00330000000000000000000000 "
		},
		"gasEstimates": {
			"creation": {
				"codeDepositCost": "310800",
				"executionCost": "347",
				"totalCost": "311147"
			},
			"external": {
				"getBalances(address,address[])": "infinite"
			}
		},
		"methodIdentifiers": {
			"getBalances(address,address[])": "6a385ae9"
		}
	},
	"abi": [
		{
			"inputs": [
				{
					"internalType": "address",
					"name": "user",
					"type": "address"
				},
				{
					"internalType": "address[]",
					"name": "tokenAddresses",
					"type": "address[]"
				}
			],
			"name": "getBalances",
			"outputs": [
				{
					"components": [
						{
							"internalType": "address",
							"name": "tokenAddress",
							"type": "address"
						},
						{
							"internalType": "uint256",
							"name": "balance",
							"type": "uint256"
						}
					],
					"internalType": "struct TokenBalanceChecker.TokenBalance[]",
					"name": "",
					"type": "tuple[]"
				}
			],
			"stateMutability": "view",
			"type": "function"
		}
	]
}